S01400004C41424F5241544F52494F362E737265639C
S11300000C9434000C9451000C9451000C94510045
S11300100C9451000C9451000C9451000C94510018
S11300200C9451000C9451000C9451000C94510008
S11300300C9451000C9451000C9451000C945100F8
S11300400C9451000C9451000C94B1000C94510088
S11300500C9451000C948B000C9451000C9451009E
S11300600C9451000C94510011241FBECFEFD8E022
S1130070DEBFCDBF11E0A0E0B1E0E0E1F3E002C0FB
S113008005900D92AC3AB107D9F721E0ACEAB1E0A2
S113009001C01D92A23BB207E1F70E9465010C94D6
S11300A086010C9400008AB18E7F8AB98AB182607D
S11300B08AB9E0ECF0E01082808182608083E1EC18
S11300C0F0E01082808180688083808180618083F9
S11300D0808188608083E2ECF0E0108286E0808397
S11300E08FEC90E09093C5008093C4000895AC0118
S11300F020E007C09091C00095FFFCCF3093C6006C
S11301002F5FFA01E20FF11D30813111F3CF089511
S113011090E0C09708951F920F920FB60F9211248A
S11301208F93EF93FF93EAE7F0E08081806180830F
S1130130FF91EF918F910F900FBE0F901F90189524
S113014080E091E00E94770080E191E00E947700D6
S11301508AE291E00E9477008EE391E00E947700AA
S113016008951F920F920FB60F9211242F933F936D
S11301704F935F936F937F938F939F93AF93BF93AB
S1130180EF93FF938091C6008093B1018091C000EA
S113019085FFFCCF8091B1018093B0018091B001C3
S11301A00E9488002091AC013091AD01232B09F00D
S11301B055C08130910519F0029751F138C081E0A2
S11301C090E09093AF018093AE011092AD01109234
S11301D0AC018EE091E00E9477008EE091E00E94F5
S11301E077008EE091E00E94770084E691E00E941F
S11301F077008EE091E00E9477008EE091E00E940B
S113020077008EE091E00E9477000E94A00033C046
S11302101092AF011092AE0181E090E09093AD0195
S11302208093AC018BE891E00E94770024C0109287
S1130230AF011092AE011092AD011092AC018AE0B0
S113024090E00E94770082E79FE60E9477008AE0B0
S113025090E00E9477000E94A0000DC01092AD01B2
S11302601092AC018091B10185B98091B101807C7B
S11302708BB90E94A000FF91EF91BF91AF919F9124
S11302808F917F916F915F914F913F912F910F903B
S11302900FBE0F901F901895ECE7F0E0108280815C
S11302A08064808380818F77808380818062808373
S11302B0EAE7F0E010828081806880838081886032
S11302C080838081876080830895F89484B18FEF60
S11302D084B98AB1806C8AB90E9453000E944C018F
S11302E078940E94A0008091AE019091AF01019793
S11302F0D1F7EAE7F0E0808180648083E9E7F0E009
S1130300808185B98081807C8BB9EDCFF894FFCF53
S11303100A204269656E76656E69646F21200A0061
S11303200A20312E204C65657220506F74656E630F
S1130330696F6D6574726F200A000A20322E2045A1
S11303406E76696172204153434949200A000A20AC
S1130350496E6772657365206C61206F706369F321
S11303606E2064657365616461202831206F2032DA
S113037029200A0056616C6F7220646520706F74C6
S1130380206D6F73747261646F20656E2062617298
S11303907261206465204C454473000A20BF517586
S11303A0E920636172E16374657220646573656159
S10F03B0206D6F73747261723F200A00AC
S9030000FC
